{
  "contractName": "DappToken",
  "abi": [
    {
      "inputs": [
        {
          "internalType": "uint256",
          "name": "_initialSupply",
          "type": "uint256"
        }
      ],
      "payable": false,
      "stateMutability": "nonpayable",
      "type": "constructor"
    },
    {
      "anonymous": false,
      "inputs": [
        {
          "indexed": true,
          "internalType": "address",
          "name": "_owner",
          "type": "address"
        },
        {
          "indexed": true,
          "internalType": "address",
          "name": "_spender",
          "type": "address"
        },
        {
          "indexed": false,
          "internalType": "uint256",
          "name": "_value",
          "type": "uint256"
        }
      ],
      "name": "Approval",
      "type": "event"
    },
    {
      "anonymous": false,
      "inputs": [
        {
          "indexed": true,
          "internalType": "address",
          "name": "_from",
          "type": "address"
        },
        {
          "indexed": true,
          "internalType": "address",
          "name": "_to",
          "type": "address"
        },
        {
          "indexed": false,
          "internalType": "uint256",
          "name": "_value",
          "type": "uint256"
        }
      ],
      "name": "Transfer",
      "type": "event"
    },
    {
      "constant": true,
      "inputs": [
        {
          "internalType": "address",
          "name": "",
          "type": "address"
        },
        {
          "internalType": "address",
          "name": "",
          "type": "address"
        }
      ],
      "name": "allowance",
      "outputs": [
        {
          "internalType": "uint256",
          "name": "",
          "type": "uint256"
        }
      ],
      "payable": false,
      "stateMutability": "view",
      "type": "function"
    },
    {
      "constant": true,
      "inputs": [
        {
          "internalType": "address",
          "name": "",
          "type": "address"
        }
      ],
      "name": "balanceOf",
      "outputs": [
        {
          "internalType": "uint256",
          "name": "",
          "type": "uint256"
        }
      ],
      "payable": false,
      "stateMutability": "view",
      "type": "function"
    },
    {
      "constant": true,
      "inputs": [],
      "name": "name",
      "outputs": [
        {
          "internalType": "string",
          "name": "",
          "type": "string"
        }
      ],
      "payable": false,
      "stateMutability": "view",
      "type": "function"
    },
    {
      "constant": true,
      "inputs": [],
      "name": "symbol",
      "outputs": [
        {
          "internalType": "string",
          "name": "",
          "type": "string"
        }
      ],
      "payable": false,
      "stateMutability": "view",
      "type": "function"
    },
    {
      "constant": true,
      "inputs": [],
      "name": "totalSupply",
      "outputs": [
        {
          "internalType": "uint256",
          "name": "",
          "type": "uint256"
        }
      ],
      "payable": false,
      "stateMutability": "view",
      "type": "function"
    },
    {
      "constant": false,
      "inputs": [
        {
          "internalType": "address",
          "name": "_to",
          "type": "address"
        },
        {
          "internalType": "uint256",
          "name": "_value",
          "type": "uint256"
        }
      ],
      "name": "transfer",
      "outputs": [
        {
          "internalType": "bool",
          "name": "success",
          "type": "bool"
        }
      ],
      "payable": false,
      "stateMutability": "nonpayable",
      "type": "function"
    },
    {
      "constant": false,
      "inputs": [
        {
          "internalType": "address",
          "name": "_spender",
          "type": "address"
        },
        {
          "internalType": "uint256",
          "name": "_value",
          "type": "uint256"
        }
      ],
      "name": "approve",
      "outputs": [
        {
          "internalType": "bool",
          "name": "success",
          "type": "bool"
        }
      ],
      "payable": false,
      "stateMutability": "nonpayable",
      "type": "function"
    },
    {
      "constant": false,
      "inputs": [
        {
          "internalType": "address",
          "name": "_from",
          "type": "address"
        },
        {
          "internalType": "address",
          "name": "_to",
          "type": "address"
        },
        {
          "internalType": "uint256",
          "name": "_value",
          "type": "uint256"
        }
      ],
      "name": "transferFrom",
      "outputs": [
        {
          "internalType": "bool",
          "name": "success",
          "type": "bool"
        }
      ],
      "payable": false,
      "stateMutability": "nonpayable",
      "type": "function"
    }
  ],
  "bytecode": "0x60806040526040518060400160405280600b81526020017f426142754269736c6572690000000000000000000000000000000000000000008152506000908051906020019061004f92919061012d565b506040518060400160405280600781526020017f47454e45534953000000000000000000000000000000000000000000000000008152506001908051906020019061009b92919061012d565b503480156100a857600080fd5b50604051610d39380380610d39833981810160405260208110156100cb57600080fd5b81019080805190602001909291905050508060028190555080600360003373ffffffffffffffffffffffffffffffffffffffff1673ffffffffffffffffffffffffffffffffffffffff16815260200190815260200160002081905550506101d2565b828054600181600116156101000203166002900490600052602060002090601f016020900481019282601f1061016e57805160ff191683800117855561019c565b8280016001018555821561019c579182015b8281111561019b578251825591602001919060010190610180565b5b5090506101a991906101ad565b5090565b6101cf91905b808211156101cb5760008160009055506001016101b3565b5090565b90565b610b58806101e16000396000f3fe608060405234801561001057600080fd5b50600436106100885760003560e01c806370a082311161005b57806370a082311461021a57806395d89b4114610272578063a9059cbb146102f5578063dd62ed3e1461035b57610088565b806306fdde031461008d578063095ea7b31461011057806318160ddd1461017657806323b872dd14610194575b600080fd5b6100956103d3565b6040518080602001828103825283818151815260200191508051906020019080838360005b838110156100d55780820151818401526020810190506100ba565b50505050905090810190601f1680156101025780820380516001836020036101000a031916815260200191505b509250505060405180910390f35b61015c6004803603604081101561012657600080fd5b81019080803573ffffffffffffffffffffffffffffffffffffffff16906020019092919080359060200190929190505050610471565b604051808215151515815260200191505060405180910390f35b61017e610563565b6040518082815260200191505060405180910390f35b610200600480360360608110156101aa57600080fd5b81019080803573ffffffffffffffffffffffffffffffffffffffff169060200190929190803573ffffffffffffffffffffffffffffffffffffffff16906020019092919080359060200190929190505050610569565b604051808215151515815260200191505060405180910390f35b61025c6004803603602081101561023057600080fd5b81019080803573ffffffffffffffffffffffffffffffffffffffff169060200190929190505050610881565b6040518082815260200191505060405180910390f35b61027a610899565b6040518080602001828103825283818151815260200191508051906020019080838360005b838110156102ba57808201518184015260208101905061029f565b50505050905090810190601f1680156102e75780820380516001836020036101000a031916815260200191505b509250505060405180910390f35b6103416004803603604081101561030b57600080fd5b81019080803573ffffffffffffffffffffffffffffffffffffffff16906020019092919080359060200190929190505050610937565b604051808215151515815260200191505060405180910390f35b6103bd6004803603604081101561037157600080fd5b81019080803573ffffffffffffffffffffffffffffffffffffffff169060200190929190803573ffffffffffffffffffffffffffffffffffffffff169060200190929190505050610afe565b6040518082815260200191505060405180910390f35b60008054600181600116156101000203166002900480601f0160208091040260200160405190810160405280929190818152602001828054600181600116156101000203166002900480156104695780601f1061043e57610100808354040283529160200191610469565b820191906000526020600020905b81548152906001019060200180831161044c57829003601f168201915b505050505081565b600081600460003373ffffffffffffffffffffffffffffffffffffffff1673ffffffffffffffffffffffffffffffffffffffff16815260200190815260200160002060008573ffffffffffffffffffffffffffffffffffffffff1673ffffffffffffffffffffffffffffffffffffffff168152602001908152602001600020819055508273ffffffffffffffffffffffffffffffffffffffff163373ffffffffffffffffffffffffffffffffffffffff167f8c5be1e5ebec7d5bd14f71427d1e84f3dd0314c0f7b2291e5b200ac8c7c3b925846040518082815260200191505060405180910390a36001905092915050565b60025481565b600081600360008673ffffffffffffffffffffffffffffffffffffffff1673ffffffffffffffffffffffffffffffffffffffff1681526020019081526020016000205410156105b757600080fd5b600460008573ffffffffffffffffffffffffffffffffffffffff1673ffffffffffffffffffffffffffffffffffffffff16815260200190815260200160002060003373ffffffffffffffffffffffffffffffffffffffff1673ffffffffffffffffffffffffffffffffffffffff1681526020019081526020016000205482111561064057600080fd5b81600360008673ffffffffffffffffffffffffffffffffffffffff1673ffffffffffffffffffffffffffffffffffffffff1681526020019081526020016000205403600360008673ffffffffffffffffffffffffffffffffffffffff1673ffffffffffffffffffffffffffffffffffffffff1681526020019081526020016000208190555081600360008573ffffffffffffffffffffffffffffffffffffffff1673ffffffffffffffffffffffffffffffffffffffff1681526020019081526020016000206000828254019250508190555081600460008673ffffffffffffffffffffffffffffffffffffffff1673ffffffffffffffffffffffffffffffffffffffff16815260200190815260200160002060003373ffffffffffffffffffffffffffffffffffffffff1673ffffffffffffffffffffffffffffffffffffffff1681526020019081526020016000205403600460008673ffffffffffffffffffffffffffffffffffffffff1673ffffffffffffffffffffffffffffffffffffffff16815260200190815260200160002060003373ffffffffffffffffffffffffffffffffffffffff1673ffffffffffffffffffffffffffffffffffffffff168152602001908152602001600020819055508273ffffffffffffffffffffffffffffffffffffffff168473ffffffffffffffffffffffffffffffffffffffff167fddf252ad1be2c89b69c2b068fc378daa952ba7f163c4a11628f55a4df523b3ef846040518082815260200191505060405180910390a3600190509392505050565b60036020528060005260406000206000915090505481565b60018054600181600116156101000203166002900480601f01602080910402602001604051908101604052809291908181526020018280546001816001161561010002031660029004801561092f5780601f106109045761010080835404028352916020019161092f565b820191906000526020600020905b81548152906001019060200180831161091257829003601f168201915b505050505081565b600081600360003373ffffffffffffffffffffffffffffffffffffffff1673ffffffffffffffffffffffffffffffffffffffff16815260200190815260200160002054101561098557600080fd5b81600360003373ffffffffffffffffffffffffffffffffffffffff1673ffffffffffffffffffffffffffffffffffffffff1681526020019081526020016000205403600360003373ffffffffffffffffffffffffffffffffffffffff1673ffffffffffffffffffffffffffffffffffffffff1681526020019081526020016000208190555081600360008573ffffffffffffffffffffffffffffffffffffffff1673ffffffffffffffffffffffffffffffffffffffff1681526020019081526020016000205401600360008573ffffffffffffffffffffffffffffffffffffffff1673ffffffffffffffffffffffffffffffffffffffff168152602001908152602001600020819055508273ffffffffffffffffffffffffffffffffffffffff163373ffffffffffffffffffffffffffffffffffffffff167fddf252ad1be2c89b69c2b068fc378daa952ba7f163c4a11628f55a4df523b3ef846040518082815260200191505060405180910390a36001905092915050565b600460205281600052604060002060205280600052604060002060009150915050548156fea265627a7a723158200aacbcb5164b0673a2512edee95a0aa19c11da0ead9d4284cdda13226408b8a564736f6c63430005100032",
  "source": "pragma solidity ^0.5.16;\n\ncontract DappToken{\n    string public name = \"BaBuBisleri\";\n    string public symbol = \"GENESIS\";\n    uint256 public totalSupply;\n    mapping(address => uint256) public balanceOf;\n    // allowance\n    // Returns the amount which _spender is still allowed to withdraw from _owner.\n    mapping(address => mapping(address => uint256)) public allowance;\n    // mapping (\"A\" allowing => (\"B\" => to sped \"X\"))\n    // mapping (\"A\" allowing => (\"C\" => to sped \"Y\")) and sso on...\n\n    // Events in solidity is something that te contract is going to emit in the blockchian which users can subscribe to\n    // you can only listen/ see the parameters mentioned as indexed to inside the \"Event\".\n    // ===========================================OR===========================================================\n    // An event is emitted, it stores the arguments passed in transaction logs. These logs are stored on\n    //  blockchain and are accessible using address of the contract till the contract is present on the blockchain.\n    event Transfer(\n        address indexed _from,\n        address indexed _to,\n        uint256 _value      \n    );\n\n    event Approval(\n        address indexed _owner,\n         address indexed _spender, \n         uint256 _value\n    );\n\n    constructor(uint256 _initialSupply) public{\n        totalSupply = _initialSupply;\n        // totalSupply = 1000000;\n        // allocate initial supply to one of the addresses initially.\n        balanceOf[msg.sender]=_initialSupply;\n    }\n\n    //transfer function.\n   \n    function transfer(address _to, uint256 _value) public returns(bool success) {\n        // return boolean and show an exception if not enough balance\n        require(balanceOf[msg.sender] >= _value);\n        // Transfer the balance\n        balanceOf[msg.sender] = balanceOf[msg.sender] - _value;\n        balanceOf[_to] = balanceOf[_to] + _value;\n        // transfer of \"0\" is valid\n        // Transfer event\n        emit Transfer(msg.sender, _to, _value);\n        \n        return true;\n    }   \n\n    // Delegated trasnfer\n    // For eg: User \"A\" can \"ALLOW\" User \"B\" to spend \"C\" amount of his/her behalf.\n    // Usually a wallet rests on a differnet contract address in the network and thus the user needs to allow the contract(wallet)\n    // To spend on itss behalf. \n    // Exchanges are another example of this. You can allow the exchange to do some echanges between tokens on your behalf.\n    // Thus 3 types of function.\n    // \"APPROVE\" denoting who is allowed by whom\n    // \"TRANSFERFROM\": Once you have approved a certain amount to \"B\", Then \"B can do the transaction on your behalf.\n    // This \"TRANSFERFROM\" is similar to \"transfer\" but in \"transfer\" the user himself was intitiating the Tx, while in \"trnasferfrom\"\n    // some other \"allowed\" user/address/wallet is doin Tx, on \"A\"s behalf.\n    // \"ALLOWANCE\": alloted amount of approval to user \"B\" by \"A\".\n\n    // Aprove\n    // Allows _spender to withdraw from your account multiple times, up to the _value amount. \n    //If this function is called again it overwrites the current allowance with _value.\n    // It must also trigger the approval event.\n    function approve(address _spender, uint256 _value) public returns (bool success){\n        // If You are account \"A\" then you would like to approve \"_spender\" to be able to spend \"_value\" on your behalf.\n        // Allowance\n        allowance[msg.sender][_spender]= _value;  \n        // Trigger approval event\n        emit Approval(msg.sender, _spender,_value);\n        return true;\n    }\n\n\n\n    // TransferFrom :\n    // Transfers _value amount of tokens from address _from to address _to, and MUST fire the Transfer event.\n    // The transferFrom method is used for a withdraw workflow, allowing contracts to transfer tokens on your behalf. This\n    // can be used for example to allow a contract to transfer tokens on your behalf and/or to charge fees in sub-currencies. \n    //The function SHOULD throw unless the _from account has deliberately authorized the sender of the message via some mechanism.\n    function transferFrom(address _from, address _to, uint256 _value) public returns (bool success){\n        // _from : \"A\"\n        // The person calling this or the msg.sender for this function will be \"B\"\n        // _to : \"C\"\n        // _ value : value to tx from \"A\" to \"C\"\n        \n        // Require _from has enough tokens.\n        // Require if the allowance is enough.\n        require(balanceOf[_from] >= _value);\n        require(_value <= allowance[_from][msg.sender]);\n\n        // Update the balance \n        balanceOf[_from] = balanceOf[_from]  - _value;\n        balanceOf[_to] += _value;  \n        // Update the allowance\n        allowance[_from][msg.sender] = allowance[_from][msg.sender] - _value;\n\n        // Emit the Event\n        emit Transfer(_from, _to, _value);\n\n        return true;    \n    } \n}",
  "sourcePath": "C:/Users/barot/Downloads/Block chain/token_sale-5_front_end/contracts/DappToken.sol",
  "compiler": {
    "name": "solc",
    "version": "0.5.16+commit.9c3226ce.Emscripten.clang"
  },
  "schemaVersion": "3.4.1",
  "updatedAt": "2021-06-29T15:02:52.777Z",
  "networkType": "ethereum",
  "devdoc": {
    "methods": {}
  },
  "userdoc": {
    "methods": {}
  }
}